:400000000040002011000000E1040000E104000008B500F07FFAC04638B51222254B1A6000F0CCFB244800F0DBFA012000F0E6FB302000F0E5FA214A214B1A60214C8025F2
:40004000ED052560204A116802230B4313601F4A1F4B1A601F4A136808218B431360FA20C00000F077FB1C4800F06AFBE82252011A4B1A601A4B1B4A1A60882189011A4A99
:4000800011601A4A1A6080221206194B1A608022D202184B1A604022174B1A600132174B1A600820164900F0FBFA082000F0E2FA256038BD30001040001BB7000600008007
:4000C00004010B400C020B4078002E402D3E00007C002E406CF02E40DC050000000301400000014040FF00800403014041FF008008010B4000010B400801014004010140F5
:400100001509000010B572B60022294B1A60002410E0284863001A195200821891881B195B001A5AC31858880004104300F050FA0134E4B2012CECD9EE2212061E4B1A606E
:4001400099231B041D4A1360EE2109041C4A11601C4A13601C4A13601C4A13601C4B197802220A431A701B4802783C218A4328390A430270197816220A431A70D822120482
:40018000154B1A602023154A1360C4218902144A1160144A13603022134B1A6090229202124B1A60FFF738FF00F002FA10BDC0466CF02E40081D0000000002400001024099
:4001C0000003024000500F4010500F4030500F4000700F4001700F4008000440000104400801044018010440000304400803044010B5064C2378002B07D1054B002B02D04B
:40020000044800E000BF0123237010BD6801002000000000381B000008B5084B002B03D00748084900E000BF07480368002B00D108BD064B002BFBD09847F9E700000000A5
:40024000381B00006C010020C80000200000000010B5041CC30702D50E4800F0CBFDA30702D50D4800F0C6FD630702D50B4800F0C1FD230702D50A4800F0BCFDE30602D59B
:40028000084800F0B7FDE30502D5074800F0B2FD10BDC0463C1B0000581B0000741B0000901B0000A81B0000C81B0000F8B5051C0E1C6220291C321C002300F029FC071CB8
:4002C00000F0FEFB8307FBD500240EE00134E4B2F92C0CD86220291C321C002300F018FC071C00F0EDFB8307FBD5002FEED1381CFFF7AEFFF8BDC046F8B5051C0E1C62202A
:40030000291C321C012300F079FC071C00F0D8FBC307FBD500240EE00134E4B2F92C0CD86220291C321C012300F068FC071C00F0C7FBC307FBD5002FEED1381CFFF788FF80
:40034000F8BDC04608B506480221FFF7AFFF0F2000F0DEF903480221FFF7A8FF08BDC04684010020CC00002010B582B0074804300121FFF79BFF6B46DC1D00232370201CCB
:400380000121FFF7B9FF207802B010BDCC00002010B582B0074808300121FFF787FF6B46DC1D00232370201C0121FFF7A5FF207802B010BDCC00002010B5064C201C0C3064
:4003C0000221FFF773FF201C10300221FFF76EFF10BDC046CC00002010B582B0094814300121FFF763FF01AC002323706370201C0221FFF781FF207800026378184302B01E
:4004000010BDC046CC00002010B582B0084818300121FFF74BFF6B46DC1D00232370201C0121FFF769FF0020205602B010BDC046CC000020F0B5474680B480460F1C00236F
:4004400003800B700025002600240AE0FFF7C4FF3618FFF7D9FF2D18632000F059F90134E4B2002CF2D043461E803D7004BC9046F0BDC04610B5C2B062B600F051FC00F0F4
:40048000B1FAFFF75FFFFFF76FFF041CFFF780FF031C02A81049221C00F046FF02A800F0A9FCFFF789FF00226B46DA806B465A716B46981D591DFFF7BDFF6B46DA886B46F7
:4004C00005331B785BB202A8044900F02DFF02A800F090FCECE7C046D01C0000F41C0000FEE7C04608B5031C084A1068C318084A9A1A802A02DC054A136005E000F0E0FEA7
:400500000C2303600120404208BDC046E8000020E801002070B50F4E0F4D13E029686B68AC68002202E001C901C30432A242FAD1E868002202E0002102C304328242FAD1EB
:400540001035013E002EE9D100F0C0FEFFF792FFFEE7C04601000000A01D000008B50F4A136801218B43136000230AE0032B03D89A000B49505800E00A4899000A4A88509A
:4005800001332F2BF2D9FFF7BDFD0022074B1A60024A116801230B43136008BD0000104000000000E104000000000020C00000200323044A1360044A13600022034B1A600E
:4005C0007047C0463000304030003140000E3F4008B50A1C002100F09FFE08BD000000000230800803D00138FDD1C046C046C0467047EFF3108072B6704780F310887047AA
:4006000010B586B0041CFFF7F4FF0E4B1B6800930D4B1B680193033C0C4B1B5D02930C4B1B68039304AA0B4B04936B4605930A4B1A600A490A4A11601B68FFF7DEFF06B0EE
:4006400010BDC04608010B4000010B40141D000030001040B6EA0000080010401700008004001040024B1B68012018407047C0460C002E401F2318401E3B8340181C014BBD
:400680001860704700E100E01F2318401E3B8340181C014B1860704780E100E001BE704738B5041C0D1C1F2802D90020FFF7F6FFA400034B9C4664442068256038BDC04647
:4006C0004000002070B5041C0E1E032E02D90020FFF7E4FF1F2C02D90020FFF7DFFF03252540ED000635FFF784FFA408A400074B9C46644423680322AA409343AE40351C01
:400700001D432560FFF779FF70BDC04600E400E010B5041C06E0084B1868FFF761FF074B9C46644480231B029C42F4D8024B58686043FFF755FF10BDEC0000200080FFFFE4
:4007400008B5034B1B7A5843FFF74AFF08BDC046EC00002010B5041C0F4A116801230B4313600E4A0E4B1A600E4A1368802109020B431360002809D100200CE00120FFF7FC
:40078000DFFFFFF76FFF002804D1013C002CF5D1102000E0002010BD60F02E400220000078002E4010002E40034B1868C0231B02184000D00120704700010B4010B50D4B53
:4007C0001A6801218A431A601A68022082431A60094A10683024A043203C204310601068093CA043014311601A68802109060A431A6010BD00F02E4000FF2E4038B51D4BBF
:400800001B6801241C40002802D0012816D02BE0184B19680122914319601968022081431960154B19682E3081432038014319601968093881430A431A6018E00D4B1A6835
:4008400002218A431A600C4A10680725A84301431160116830208143103801431160196801220A431A6002E00020FFF717FF201C38BDC04600F02E4000FF2E4008B5FFF7BC
:40088000B8FE044A1368C02109020B431360FFF7B4FE08BD00010B4010B5FFF7AAFE08490A68084B1A408024E40122430A600A6813408022120213430B60FFF79EFE10BD8D
:4008C00000010B40FF3FFFFF70B5061CFFF791FE041CFFF769FF002803D0FFF7DDFF012500E000250848331C0340084A106808490840184310601368012D01D1FFF7BEFFF0
:40090000201CFFF77AFE70BD0404040010020B40FBFBFBFF10B5244B1B685B0715D5234B1B685B070ED5224B9969042001401F4C22688A4322609A6982439A61DB68002B05
:4009400000D098470420FFF7BFFF174B1B685B0518D5164B1B685B0510D5154B99698022D2001140114802688A4302609969114A0A409A611B69002B00D098478020C0001C
:40098000FFF7A2FF084B1B685B030CD5074B1B685B0304D5064B5B69002B00D098478020C002FFF791FF10BD10020B40FC00002088010020FFFBFFFF08B50A20FFF75AFE8C
:4009C00008BDC04608B500F01DF808BD08B5044A1368802109060B431360FFF7EDFF08BD0000254008B5064B1B78002B04D1FFF7E9FF0122024B1A70FFF7E8FF08BDC04681
:400A0000A401002010B50024194B1C60194A1A4B1A601A4B1A4A13601A4A14601A4A14601A4A13601A4B1C600A20FFF72DFE0A200321FFF747FE0A201649FFF731FE164B5F
:400A40001C60164B1C60164B1C601422FF32154B1A60154B1C60154B1C60043AFF3A144B1A70144B1C80144B1C60144B1C6010BD00002540770800806000254007010080B8
:400A800000032540040325401003254000022540040225400D0E0000C80E2540880E2540480F2540080F2540C80F2540880F2540B8010020C8010020D8010020C0010020BB
:400AC00010B50A20FFF7E0FD074B1B889BB21C1C064A1278920601D504241C430A20FFF7C9FD201C10BDC046C8010020B8010020054B1B682022134000D008230122134358
:400B0000024A13607047C0466400254068002540F0B583B001900C1C171C1D1C002919D0284B1B78102B0AD10A20FFF7ADFD264B1B68DB0701D508260FE000260DE0214B66
:400B40001B78602B08D1214A138808218B431380002602E0042600E00426002E2BD12822184B1A7000231A4A13601A4A13601A4B1F601A4B1C60EAB2194B1A70019B5C0039
:400B8000FF231C40114A138802218B431380154A154B1A604023154A1360154A1360EB0704D5FFF7A5FF134B1C6004E0114B1C600222114B1A600A20FFF75CFD301C03B090
:400BC000F0BDC046B801002064002540C8010020BC010020C0010020C4010020DC010020D001002017030000000F2540800F2540880F25404002254068002540F0B583B05C
:400C000001900C1C171C1D1C002919D02D4B1B78102B0AD10A20FFF737FD2B4B1B68DB0701D508260FE000260DE0264B1B78602B08D1264A138808218B431380002602E022
:400C4000042600E00426002E35D129221D4B1A7000221F4B1A601F4A17601F4B1C60EBB21E490B70019B5C00FF231C400120044316490B8883430B8019491A4B19601368A8
:400C8000072B03D80422184B1A6008E0174A1368802149000B4313600822134B1A60EB0704D5FFF725FF124B1C6004E0104B1C600222104B1A600A20FFF7DCFC301C03B04A
:400CC000F0BDC046B801002064002540C8010020D8010020D4010020CC010020D001002017030000000F2540C80F254060002540400225406800254008B500F06DF808BD10
:400D000008B500F01DF808BD08B5044A1368802109060B431360FFF7EFFF08BD0000244008B5064B1B78002B04D1FFF7E9FF0122024B1A70FFF7E8FF08BDC046AC0100203A
:400D400010B5134A134B1A600023134A13600121124A1160124A13480260072412480460124803601248016012490A60124A13600421124A1160124A1360124A1360124A9D
:400D80001360124A1360124A1360124A136010BD0B0000020000244040002440480024400700008000032440040324401003244044002440000224400402244050002440C9
:400DC000880E2440C80E2440480F2440080F2440C80F2440880F2440044A1168044B0B40902109040B4313607047C04600010240FFFF0FFF38B5051C002402E000F0C0F9AA
:400E00000134285D0028F9D138BDC04610B5B94B1B68002B00D09847B74B1B68DB0702D50022B64B1A60B64B1B789B0628D5B54B1B68DB0507D5B44A1188C0239B000B4336
:400E40001380012300E00023AE4A1268D20706D5AD4A118890239B000B4313800123002B0FD0A74A1278D20701D5012200E00222A549088802430A800021A14A117000E09A
:400E800000239F4A1278920600D417E19D4A1268D20611D510229D4B1A60994B1B78DB0701D5012300E00223974A11880B4313801022934B1A701BE1914A1278120720D5C9
:400EC000904A126892070AD50222904B1A608E4A118888239B000B431380012311E0884A1278D20703D52521854A117009E02421834A1170864A1268002A02D01439854A7F
:400F000011607F4A1278520700D4AEE07C4A1278D20749D5804A1268120727D57F4A12687F4909681F240C407E4909686418141B082C09D8002C16D17B4A11687B4B0B402D
:400F40001360012308340EE008240CE0754A116877480068411877480068C0B20870116801311160013C002CF0D119E06A4A1268520715D56B4A11686D48006841186D48C6
:400F80000068C0B208701168013111601168634A1268914203D20421674A116000E001236649674A116060E0564A1268920726D50222564B1A60634A13681F2119401368F6
:400FC00080221202134000D00123CB185E4A1168CB1A136012685D4B1A604B4A118884239B000B4313805A4B1A68802149020A431A601968574A0A401A60012335E0564A12
:401000001268D2061ED427E04F4A1168404A126891421DD23E4A1268013A4B4909688A4204D140224D490A603A490A60464A11684B48006841180978C9B24A480160116896
:40104000013111603F4A12681F210A40082ADBD11021424A116008E03F4A1268520604D5394B1A68394B1A600123002B40D02E4A11682E4B0B40136000233B4A1360254A03
:4010800013603A4B1B789B070ED51D4B1B78DB0701D5092300E00A231B4A11880B4313806022174B1A7023E0314B1B689B0601D5182200E01022204B1A6019E0104B1B7856
:4010C000DB0615D42B4A13685B005B08136010210B4B1970144B186827490140196018682649014019601368802109060B43136010BDC046A80100208C0E2540880E2540C1
:40110000B80100200C0F2540C8010020000F2540C4010020880F2540CC0F2540D401002008032540D801002060002540FFFEFFFFCC0100204003254068002540ED0F00005C
:40114000C00F254008022540BC010020C001002004022540FFFFFEFF8C0F2540800F2540DC01002040022540C80F2540D00100206400254000002540FF5FFFFFFFFCFFFF60
:40118000044B1B681F221340082BF9D0024B18607047C0460802244040022440002243088B4274D303098B425FD3030A8B4244D3030B8B4228D3030C8B420DD3FF220902FC
:4011C00012BA030C8B4202D31212090265D0030B8B4219D300E0090AC30B8B4201D3CB03C01A5241830B8B4201D38B03C01A5241430B8B4201D34B03C01A5241030B8B42FB
:4012000001D30B03C01A5241C30A8B4201D3CB02C01A5241830A8B4201D38B02C01A5241430A8B4201D34B02C01A5241030A8B4201D30B02C01A5241CDD2C3098B4201D3B3
:40124000CB01C01A524183098B4201D38B01C01A524143098B4201D34B01C01A524103098B4201D30B01C01A5241C3088B4201D3CB00C01A524183088B4201D38B00C01A0E
:40128000524143088B4201D34B00C01A5241411A00D20146524110467047FFE701B5002000F00CF802BDC0460029F7D003B5FFF775FF0EBC4243891A1847C0467047C04648
:4012C000014B18687047C046600100200E4B70B500251E1C0D4CE41AA410A54204D0AB00F35898470135F8E700F048FD084B00251E1C084CE41AA410A54204D0AB00F358B9
:4013000098470135F8E770BD881D0000881D0000881D0000901D0000031C8218934202D019700133FAE770470EB410B59DB002A9029008610B488224886048610120404294
:401340001FABC881084804CBA400006801938C8100F06CF80023029A13701DB010BC08BC03B01847FFFFFF7F60010020F0B58E6885B0071C0C1C03920193B34245D3902388
:401380008A89DB001A423DD003250969236801985B1A029363695D43EB0F5D19029B6D1001331B189D4200D21D1C381C53050FD5291C00F025FB061E13D0029A216900F0C5
:4013C000BCFAA289184B134080221343A38111E02A1C00F06DFB061E0CD1381C216900F0C9FA0C23402201203B60A38940421343A38117E0029B2661F61826606561019E90
:40140000ED1AA560019BB34200D2019E321C2068039900F09BFA0020A3689B1BA36023689E19266005B0F0BD7FFBFFFFF0B59FB0029005938B890E1C171C1B0610D50B6918
:40144000002B0DD1402100F0DBFA30603061002804D10C23029A01381360D0E040237361002306AD6B6120336B761033AB763C1C2378002B03D1E31B049312D003E0252BEB
:40148000F9D00134F4E7049B0298311C3A1CFFF76DFF431C00D1ACE06A69049B944663446B612378002B00D1A3E00122002352426A6002A95432521801342B60EB60AB602B
:4014C0001370AB654F4F2178381C052200F02AFA002808D0C01B01278740381C2B68013418432860EEE72B68DA0604D55322202102A8121811701A0704D553222B2102A839
:401500001218117022782A2A01D0099B0EE0059A111D12680591002A01DB099204E05242EA60022213432B60013409E02278303A092A04D80A214B4301349B18F6E709931F
:4015400023782E2B18D163782A2B09D1059B02341A1D1B680592002B0DDA01235B420AE0002301342278303A092A04D80A214B4301349B18F6E70793234F2178381C032299
:4015800000F0D0F9002807D0C01B40278740381C2B6801341843286021781C480622671C297600F0BFF9002812D0194B002B06D10722059B073393430833059314E005ABBC
:4015C00000930298291C321C124B00E000BF07E005AB00930298291C321C0E4B00F08AF80390039B013304D06B69039A9B186B613DE7B3890B985B0601D5012040421FB038
:40160000F0BDC046461D00004C1D0000501D0000000000006D130000F7B5171C01930A698B6800900C1C934200DA131C221C3B6043321278002A01D001333B6023689B0601
:4016400002D53B6802333B60062523681D401ED0231C43331B785A1E9341226892061CD53020E1184031C870211C5A1C45310978A21840320233D1700FE0221C0123009851
:4016800001991932089EB047431C0ED00135E3683A689B1A9D42F0DBDAE7221C009801994332089DA847431C02D10120404220E006232068E1683A6803400025042B03D1D3
:4016C0008D1AEB43DB171D40A3682269934201DD9B1AED180027AF420ADA221C0123009801991A32089EB047431CDED00137F2E70020FEBDF0B58BB006920A1C43320793A4
:40170000059004920A7E0C1C109B6E2A00D1A8E011D8632A22D009D8002A00D1B2E0582A00D0C2E045310A707C4A4FE0642A1DD0692A1BD0B9E0732A00D1A7E009D86F2A82
:4017400029D0702A00D0B0E0202209680A43226037E0752A1FD0782A33D0A6E00E1C1A684236111D196013683370A1E021681A68080606D4490604D5111D19600023D55EA2
:4017800002E0111D19601568002D3BDA2D23049A6D42137036E021681A68080606D4490604D51568111D1960ADB202E0111D196015685A4B227E03930A276F2A1DD1082745
:4017C0001BE0221C782145321170554A19680392081D226818600D68100602D4500600D5ADB2D30702D520231A4322601027002D03D1202322689A432260231C002243334A
:401800001A7002E00A27454B03936368A360002B03DB0422216891432160002D02D1049E002B0ED0049E281C391CFFF73DFD039B013E5B5C281C3370391CFFF7AFFC051E60
:40184000F1D1082F09D12368DB0706D563682269934202DC3023013E3370049B9B1B23612BE009681A68080607D4490605D5111D19601368A28A1A8004E0111D1960136838
:4018800062691A600023049E236116E01A68111D196016680021301C626800F043F8002801D0801B6060636803E0261C42363270012323610023049A1370079B059800937F
:4018C000211C069B09AAFFF7A7FE431C02D10120404221E0236905980699321C079DA847431CF4D023689B0705D4099BE068984212DA181C10E00025E368099A9B1A9D4297
:40190000F3DA221C0123059806991932079EB047431CDCD00135EFE70BB0F0BD571D0000681D0000C9B28218904204D003788B4202D00130F8E700207047002310B5934264
:4019400003D0CC5CC4540133F9E710BD10B5814208D28B18984205D29B1A013A09D3995C8154FAE70023934203D0CC5CC4540133F9E710BD30B500293ED004390B68002B63
:4019800000DAC9181D4A1368141C002B02D14B60116031E099420DD208680A189A4203D11368C3180B6053684B60216024E08A4203D8131C5A68002AF9D11D685C198C4233
:4019C0000BD10968691858181960904214D110685268091819605A600EE08C4202D90C23036009E008680C18944203D114685268001908604A60596030BDC046B4010020C1
:401A0000032370B5CC1C9C430834051C0C2C01D20C2405E0002C03DA0C2300202B6042E08C42F9D3204A1368101C191C002913D00A68121B0DD40B2A02D90A608B181FE08A
:401A40008B4202D15A6802601BE04A685A600B1C17E00B1C4968E9E7144E3368002B03D1281C00F04BF83060281C211C00F046F8031C421CD0D00322C61C964386420AD123
:401A80001C60181C07210B301A1D8843821A0AD05142995007E0311A281C00F02FF8431CBAD0331CECE770BDB4010020B0010020F8B5061C0C1C151C002904D1111CFFF76B
:401AC0009FFF041C18E0002A03D1FFF753FF2C1C12E000F025F8A8420ED2301C291CFFF78FFF071E07D0211C2A1CFFF726FF301C211CFFF73FFF3C1C201CF8BD38B5002314
:401B0000064C051C081C2360FEF7ECFC431C03D12368002B00D02B6038BDC046E00100200B1F1A68101F002A04DA891804390B68D018043870470000000000004932435F42
:401B40004932435F4D5354525F4552525F4152425F4C4F53540D0A004932435F4932435F4D5354525F4552525F4C425F4E414B0D0A0000004932435F4932435F4D53545249
:401B80005F4E4F545F52454144590D0A000000004932435F4932435F4D5354525F4255535F425553590D0A004932435F4932435F4D5354525F4552525F41424F52545F5317
:401BC000544152540D0A00004932435F4932435F4D5354525F4552525F4255535F4552520D0A00004932435F4D535441545F52445F434D504C540D0A000000004932435F75
:401C00004D535441545F57525F434D504C540D0A000000004932435F4D535441545F584645525F494E500D0A000000004932435F4D535441545F584645525F48414C540DB7
:401C40000A0000004932435F4D535441545F4552525F53484F52545F584645520D0A00004932435F4D535441545F4552525F414444525F4E414B0D0A000000004932435FFD
:401C80004D535441545F4552525F4152425F4C4F53540D0A000000004932435F4D535441545F4552525F41424F52545F584645520D0A00004932435F4D535441545F45525B
:401CC000525F4255535F4552524F520D0A0000000D0A4C494441522D4C69746532202868773A2025642C2073773A202564290D0A000000002564636D202564646D2F7320E1
:401D00002020200D0000000000300F40000400400F400004030405060708090A0B0C0E0F101112131415161718191B1C1D1E1F2021222325262728292A2B2E2F3031323399
:401D4000343500004300232D302B2000686C4C006566674546470030313233343536373839414243444546003031323334353637383961626364656600000000F8B5C04611
:401D8000F8BC08BC9E467047190200005D050000F8B5C046F8BC08BC9E467047F1010000B01D0000C8000020A00000008000000000000000048C0000410000004F000000E6
:401DC00011FF0000000400008F00000009000000E80100200000C05D80BB000030000000006CDC020404040000000000000000000000000000000000000000000000000050
:401E00000000000000000000441D00000000000000000000000000000000000000000000000000000000000000000000000000000000000000000000000000000000000041
:401E40000000000000000000000100200000000000000000000000000000000000000000000000000000000000000000000000000000000000000000000000000000000041
:401E80000000000000000000000000000000000000000000000000000000000000000000000000000000000000000000000000000000000000000000000000000000000022
:401EC00000000000000000000000000000000000000000000000000000000000000000000000000000000000000000000000000000000000000000000000000000000000E2
:401F000000000000000000000000000000000000000000000000000000000000000000000000000000000000000000000000000000000000000000000000000000000000A1
:401F40000000000000000000000000000000000000000000000000000000000000000000000000000000000000000000000000000000000000000000000000000000000061
:020000040001F9
:0200000490303A
:0200000045D6E3
:0200000490402A
:4000000000000000000000000000000000000000000000000000000000000000000000000000000000000000000000000000000000000000000000000000000000000000C0
:400040000000000000000000000000000000000000000000000000000000000000000000000000000000000000000000000000000000000000000000000000000000000080
:0200000490501A
:0C00000000020E34119E00010E3D5774EA
:0200000490600A
:0100000001FE
:00000001FF